{
  "_format": "hh-sol-artifact-1",
  "contractName": "HomeChainContract",
  "sourceName": "contracts/HomeChainContract.sol",
  "abi": [
    {
      "inputs": [
        {
          "internalType": "string",
          "name": "_title",
          "type": "string"
        },
        {
          "internalType": "string",
          "name": "_description",
          "type": "string"
        },
        {
          "internalType": "uint256",
          "name": "_limit",
          "type": "uint256"
        },
        {
          "internalType": "uint256",
          "name": "_percent",
          "type": "uint256"
        },
        {
          "internalType": "uint256",
          "name": "_price",
          "type": "uint256"
        }
      ],
      "stateMutability": "nonpayable",
      "type": "constructor"
    },
    {
      "inputs": [
        {
          "internalType": "address",
          "name": "",
          "type": "address"
        }
      ],
      "name": "participants",
      "outputs": [
        {
          "internalType": "uint256",
          "name": "",
          "type": "uint256"
        }
      ],
      "stateMutability": "view",
      "type": "function"
    },
    {
      "inputs": [],
      "name": "purchaseStake",
      "outputs": [],
      "stateMutability": "payable",
      "type": "function"
    }
  ],
  "bytecode": "0x60a060408190526000608081905261001791816100b7565b50604080516020810191829052600090819052610036916001916100b7565b5034801561004357600080fd5b506040516104c93803806104c9833981016040819052610062916101f8565b600280546001600160a01b0319163317905584516100879060009060208801906100b7565b50835161009b9060019060208701906100b7565b50600392909255600591909155600455505060006006556102c4565b8280546100c390610273565b90600052602060002090601f0160209004810192826100e5576000855561012b565b82601f106100fe57805160ff191683800117855561012b565b8280016001018555821561012b579182015b8281111561012b578251825591602001919060010190610110565b5061013792915061013b565b5090565b5b80821115610137576000815560010161013c565b600082601f830112610160578081fd5b81516001600160401b038082111561017a5761017a6102ae565b604051601f8301601f19908116603f011681019082821181831017156101a2576101a26102ae565b816040528381526020925086838588010111156101bd578485fd5b8491505b838210156101de57858201830151818301840152908201906101c1565b838211156101ee57848385830101525b9695505050505050565b600080600080600060a0868803121561020f578081fd5b85516001600160401b0380821115610225578283fd5b61023189838a01610150565b96506020880151915080821115610246578283fd5b5061025388828901610150565b60408801516060890151608090990151979a919950979695509350505050565b600181811c9082168061028757607f821691505b602082108114156102a857634e487b7160e01b600052602260045260246000fd5b50919050565b634e487b7160e01b600052604160045260246000fd5b6101f6806102d36000396000f3fe6080604052600436106100295760003560e01c806309e69ede1461002e57806318c0e04f1461006d575b600080fd5b34801561003a57600080fd5b5061005b61004936600461016e565b60076020526000908152604090205481565b60405190815260200160405180910390f35b610075610077565b005b60055434146100dd5760405162461bcd60e51b815260206004820152602760248201527f506c656173652073656e6420636f727265637420616d6f756e7420746f20636f604482015266373a3930b1ba1760c91b60648201526084015b60405180910390fd5b600354600654106101415760405162461bcd60e51b815260206004820152602860248201527f5468697320636f6e7472616374206973206f766572737562736372696265642060448201526737b910333ab6361760c11b60648201526084016100d4565b600160066000828254610154919061019c565b909155505033600090815260076020526040902060019055565b60006020828403121561017f578081fd5b81356001600160a01b0381168114610195578182fd5b9392505050565b600082198211156101bb57634e487b7160e01b81526011600452602481fd5b50019056fea26469706673582212209a28f1a9139698f3258f31b4c7d5ffca588dfd6dba9be07712e51375d27eae9964736f6c63430008040033",
  "linkReferences": {},
  "deployedLinkReferences": {}
}